:020000040800F2
:10000000100500209D010008CF160008AD1500085E
:10001000CD160008A9020008D71A00080000000049
:100020000000000000000000000000004F18000861
:1000300029030008000000004D180008B718000848
:10004000B7010008B7010008B7010008B7010008B0
:10005000B7010008B7010008B7010008B7010008A0
:10006000B7010008B7010008B7010008B701000890
:10007000B7010008B7010008B7010008B701000880
:10008000B7010008B7010008B7010008B701000870
:10009000AD020008B7010008B7010008B701000869
:1000A000B7010008B7010008B7010008B701000850
:1000B0006D190008B7010008B7010008B701000872
:1000C000B7010008B7010008B7010008B701000830
:1000D000B7010008B7010008B7010008B701000820
:1000E000B7010008B7010008B7010008B701000810
:1000F000B7010008B7010008B7010008B701000800
:10010000B7010008B7010008B7010008B7010008EF
:10011000B7010008B7010008B7010008B7010008DF
:10012000B7010008B7010008B7010008B7010008CF
:10013000B70100080000000000000000B70100083F
:10014000B7010008B7010008B7010008B7010008AF
:10015000B7010008B7010008B7010008B70100089F
:10016000B7010008B7010008B7010008B70100088F
:10017000B7010008B70100080000000000000000FF
:10018000B7010008B7010008DFF80CD000F07AF8DA
:1001900000480047191B000810050020064880474A
:1001A00006480047FEE7FEE7FEE7FEE7FEE7FEE75C
:1001B000FEE7FEE7FEE7FEE75119000889010008A7
:1001C0002DE9F05F0546002092469B46884606468C
:1001D000814640241BE0284641464746224600F01F
:1001E00041F853465A46C01A914110D31146184659
:1001F000224600F028F82D1A67EB01084F462246E8
:100200000120002100F01FF817EB00094E41201ECD
:10021000A4F10104DFDC484631462A464346BDE8E6
:10022000F09FD2B201E000F8012B491EFBD27047CB
:100230000022F6E710B513460A4604461946FFF7B2
:10024000F0FF204610BD202A04DB203A00FA02F11C
:10025000002070479140C2F1200320FA03F31943B4
:1002600090407047202A04DB203A21FA02F0002156
:10027000704721FA02F3D040C2F1200291400843B6
:1002800019467047064C074D06E0E06840F0010350
:1002900094E8070098471034AC42F6D3FFF778FF94
:1002A000901B0008B01B0008FEE7000010B50A4BC9
:1002B0000A4A00210A4800F038F940B90122022117
:1002C000084800F08CFC0449074801F0C1FABDE879
:1002D0001040034800F09DB908000020F000002005
:1002E00088000020000802402000002010B50D48C2
:1002F00000F05EFB0B4800212838012201604160BC
:100300008160C160C0E9051241620262016101467B
:10031000283000F083F8BDE810400221014800F0C9
:1003200006B8000088000020704772B6FEE790F81B
:100330002020012A07D0022A05D0416A41F48021F9
:10034000416201207047006842690A43426100200F
:100350007047F0B590F820500468A468012D05D0CE
:10036000022D03D0416A41F4802153E014F0406F24
:1003700001D1E5004BD5C4F30164022C03D9416AD5
:1003800041F4000146E00125A5401D608D684FF451
:10039000C0739DB1CE6835434E6845EAC605066810
:1003A00003EB0417F5514FF4C275076805EB04150C
:1003B0000E697E51097D012905D009E00E88CD68BE
:1003C00045EA4655EBE701684E5946F480764E51B2
:1003D0001179D2F805504FF4C67641EA0525016837
:1003E00006EB04168D511178D2F801204FF4C47534
:1003F00041EA0221026805EB04155151006803EB44
:100400000411425842F0010242500020F0BD416AFE
:1004100041F4001141620120F0BD000010B590F8D8
:100420002020012A07D0022A05D0416A41F4802108
:100430004162012010BD3B48D0F8002242F0010289
:10044000C0F80022D0F8002222F47C52C0F800222A
:10045000D0F800224B6A42EA0322C0F800220A7D4B
:1004600002F01F0301229A40D0F81C329343C0F8D7
:100470001C32CB69B3B9D0F80C329343C0F80C32BC
:100480008C894B6864F31F434C6900EBC404C4F8C7
:1004900040320C890B6864F31F434C6900EBC404C1
:1004A000C4F84432CB69012B16D1D0F80C32134377
:1004B000C0F80C320C884B6864F31F434C6900EBA6
:1004C000C404C4F840320C89CB6864F31F434C6900
:1004D00000EBC404C4F844328B69002BD0F804321A
:1004E0000ED01343C0F804320B69002BD0F814323D
:1004F00008D01343C0F81432096A012904D008E077
:100500009343EFE79343F5E7D0F81C121143C0F88B
:100510001C12D0F8001221F00101C0F800120020D6
:1005200010BD000000640040704730B590F82040D6
:10053000012C05D0022C03D0416A41F480215DE0FA
:100540000468002955D02469A40754D04FF4D87406
:10055000056804EB01142D5915F004059560056834
:100560002D594ED0ED08556005682C5904F0020451
:10057000D4604FF4DA74056804EB01142D5905F0CA
:100580000F05156105682D59C5F3072595610568A7
:100590002C59240C54614FF4DC72046802EB0112F4
:1005A000A4581C700468A458240A5C700468A458F9
:1005B000240C9C700468A258120EDA704FF4DE729C
:1005C000046802EB0112A4581C710468A458240AA0
:1005D0005C710468A458240C9C710468A258120E23
:1005E000DA71006881B1016941F0200101610020E8
:1005F00030BDE468A8E7416A41F40011416201207E
:1006000030BD6D0D1560AFE7C16841F02001C160DC
:10061000EDE72DE9F05F0546006800244669D0F853
:1006200004908768D0F80CB0D0F810A0D0F81880EB
:10063000F10748D0F90714D001218160B80703D52C
:10064000284600F0E2F90CE0780702D54FF4006488
:1006500007E0380702D54FF4805402E0284600F046
:10066000D3F9F80516D529684FF480708860B8056D
:1006700003D5284600F0CBF90CE0780502D544F408
:10068000005407E0380502D544F4804402E02846CF
:1006900000F0BCF9F80316D529684FF48030886063
:1006A000B80303D5284600F0B4F90CE0780302D56E
:1006B00044F4004407E0380302D544F4803402E0F7
:1006C000284600F0A5F9300707D55FEACB6004D5CE
:1006D0002968102044F40074C86070074FF00807C0
:1006E00007D55FEA0B7004D52868C760284600F07C
:1006F00059F9B00706D52868C068800702D0284697
:1007000000F051F9700607D55FEACA6004D5296880
:10071000102044F480640861B00607D55FEA0A70CF
:1007200004D528680761284600F03EF9F00606D592
:1007300028680069800702D0284600F036F9B00327
:1007400008D55FEAC96005D52968102048602846A9
:1007500000F02CF9F00307D55FEA097004D528688A
:100760004760284600F056F9300446D55FEA4970E4
:1007700040D5F00504D55FEAC87001D044F001040B
:10078000B00504D55FEA887001D544F00204700515
:1007900004D55FEA487001D544F00404300529D53A
:1007A00018F0700F26D008F07000402815D006DC35
:1007B000102809D020280AD0302816D10AE0502865
:1007C0000ED0602811D10EE044F008040DE044F092
:1007D00010040AE044F0200407E044F0400404E080
:1007E00044F0800401E044F480742868816921F0B9
:1007F00070018161296804204860002C05D0686A76
:10080000204368622846FFF78FFEBDE8F09F70B571
:10081000040003D094F8200010B104E0012070BD62
:10082000204600F081F82068016821F00201016093
:1008300000F0DAF90546052604E000F0D5F9401B82
:100840000A2811D8206840688007F6D4206801681B
:1008500041F00101016000F0C7F905460BE000F02E
:10086000C3F9401B0A2806D9606A40F40030606270
:1008700084F82060D2E720684068C007EFD0207E6F
:100880000128206801683DD021F080010160607E70
:1008900001282068016838D021F040010160A07E65
:1008A00001282068016833D021F020010160E07E3A
:1008B0000128206801682ED041F010010160207FDE
:1008C00001282068016829D021F008010160607FBB
:1008D00001282068016824D021F004010160D4E9D6
:1008E00002010843D4E90412114308436168491E18
:1008F00008432168C86100206062012084F820005C
:10090000002070BD41F08001C0E741F04001C5E723
:1009100041F02001CAE721F01001CFE741F00801C2
:10092000D4E741F00401D9E710B586B0044614219C
:100930006846FFF77DFC18492068884229D117488E
:100940000021026842F000720260006800F000704E
:10095000059012481038026842F0010202600068F7
:1009600000F0010005904FF4C05000900220CDE946
:10097000010103200390092004906946084800F013
:100980004BF800221146142000F09CF9142000F0CE
:100990008BF906B010BD00000064004040380240F2
:1009A0000000024070477047704770477047000072
:1009B00070B5044690F82000012804D0606A40F425
:1009C0000020606218E0022084F82000206801689E
:1009D00021F00101016000F007F905460EE000BFBB
:1009E00000F002F9401B0A2808D9606A40F4003080
:1009F0006062052084F82000012070BD20684068F6
:100A0000C007EDD1606270BD704770477047704796
:100A100070477047704700002DE9F84F00224FF0F3
:100A2000010803254FF00F0E0B6808FA02F423406B
:100A3000A3426ED14E68012E05D0022E03D0112E96
:100A400001D0122E12D186684FEA420C05FA0CF73B
:100A5000BE43CF6807FA0CF7374387604668A64362
:100A60000C79C4F30014944034434460C6685700C2
:100A700005FA07FC8C6826EA0C06BC403443C460C7
:100A80004C68022C01D0122C13D1D40800EB840442
:100A9000A346D4F8209054074FEAD46A0EFA0AF617
:100AA00029EA06090E6906FA0AF646EA0906CBF8AB
:100AB000206006680C7926EA0C0604F00304BC40AA
:100AC000344304604C68E40065D5364C266846F42F
:100AD00080462660246822F0030604F480440094D3
:100AE000314C3444A446D4F808489607370F0EFA20
:100AF00007F6B4432D4EB04201D1002624E02C4E1F
:100B0000B04201D101261FE02A4EB04202D1022696
:100B10001AE040E0284EB04201D1032614E0274EEF
:100B2000B04201D104260FE0254EB04201D1052686
:100B30000AE0244EB04201D1062605E0224EB04222
:100B400001D1072600E00826BE402643CCF80868FD
:100B50001E4E34684F689C43FF0300D51C4334602D
:100B60001A4C241D26684F689E43BF0300D51E43C0
:100B70002660164E083634684F689C43FF0200D545
:100B80001C433460114E0C3634684F689C43BF02DE
:100B900000D51C433460521C102AFFF445AFBDE859
:100BA000F88F00004438024000300140000002404D
:100BB0000004024000080240000C02400010024005
:100BC0000014024000180240001C0240003C01409A
:100BD000426931EA020200D10904816170470AB119
:100BE000816170470904FBE7014880687047000095
:100BF000100000200248816802781144816070472B
:100C0000100000200B4810B5016841F4007101602C
:100C1000016841F480610160016841F48071016004
:100C2000032000F06FF8002000F006F800F024F830
:100C3000002010BD003C024070B50D4D04464FF43D
:100C40007A712878B1FBF0F00A490968B1FBF0F03D
:100C500000F0E2FA48B9102C07D200222146501EBB
:100C600000F030F800206C6070BD012070BD000005
:100C7000100000201C0000200A4808B5016841F45B
:100C800080410160006800F4804000900548001F2A
:100C9000016841F080510160006800F080500090D0
:100CA00008BD000044380240002809DB00F01F02A4
:100CB000012191404009800000F1E020C0F80011BE
:100CC00070470000F0B40E4B1B680C46C3F30223C0
:100CD000C3F10705042D00D90425191D072901D2E8
:100CE000002300E0DB1E012606FA05F1491E214023
:100CF00099409E40761E16403143F0BC00F0ECBE99
:100D00000CED00E0064900F0070208684FF6FF030B
:100D1000184040EA0220034A104308607047000070
:100D20000CED00E00000FA052DE9F0470E46050045
:100D300065D0DFF81481D8F80000F7B200F00F009A
:100D4000B04207D288F80070D8F8000000F00F0019
:100D5000B04254D128683D4C810712D5400703D5D5
:100D6000206840F4E05020602878000703D5206810
:100D700040F4604020602068A96820F0F00008433B
:100D800020602878C0072DD03049686808390128CC
:100D900012D0022813D0032811D00968890700292E
:100DA0002DDA216821F0030101432160FFF71CFFC8
:100DB000814641F2883A0EE009688903EFE7096845
:100DC0008901ECE7FFF710FFA0EB0901514502D9BB
:100DD0000320BDE8F0872068696800F00C00B0EBE4
:100DE000810FEFD1D8F80010404601F00F01B14259
:100DF00007D90770006800F00F00B04201D0012051
:100E0000E7E72878400705D52068E96820F4E05036
:100E1000084320602878000706D52068296920F457
:100E2000604040EAC100206000F018F82168084ADC
:100E3000C1F30311515CC8400649086006480068C8
:100E4000FFF7FAFE0020C4E7003C024008380240E9
:100E5000801B00081C00002014000020154810B55D
:100E6000006810F00C02144813D04110042A0FD06F
:100E7000082A0ED10F4C241F2268236802F03F027B
:100E80005B0207D52068C0F38810A0FB010106E0D3
:100E9000084610BD2168C1F38811A1FB00010023A1
:100EA000FFF78EF92168C1F30141491C4900B0FBED
:100EB000F1F010BD083802400024F4002DE9F84F8D
:100EC00004006ED02078DFF83C93C007A9F1040538
:100ED0004AD009F104000168C1F38101012908D059
:100EE0000068C0F3810002280AD1D9F8000040024E
:100EF00006D52868800337D560680028E1D033E044
:100F00006068B0F5803F10D0B0F5A02F286810D0F1
:100F100020F480302860286820F4802028606068F1
:100F2000A8B1FFF761FE06460DE0286840F4803066
:100F3000F4E740F480202860F7E700BFFFF754FE95
:100F4000801B642873D828688003F7D50CE0FFF76E
:100F50004BFE064605E000BFFFF746FE801B6428F7
:100F6000F0D828688003F7D42078DFF89C828007C7
:100F70004FF0000A3ED5A348001D016811F00C0F88
:100F800008D00068C0F3810002280BD1D9F8000016
:100F9000400207D42868800716D5E068012800D1F0
:100FA00012E02BE1E068B8B10120C8F80000FFF7BB
:100FB0001BFE064605E000BFFFF716FE801B022859
:100FC000C0D828688007F7D52868216920F0F80084
:100FD00040EAC10028600DE0C8F800A0FFF704FE59
:100FE000064604E0FFF700FE801B02281FD8286891
:100FF0008007F7D42078000722D5824E83486169A4
:10100000703671B101210160FFF7EEFD074604E083
:10101000FFF7EAFDC01B022809D830688007F7D522
:101020000EE0C0F800A0FFF7DFFD074605E082E014
:10103000FFF7DAFDC01B02287DD830688007F7D49F
:101040002078400768D5DFF8BCB100270BF13C0BD6
:10105000DBF80000C0000BD4DBF8001041F0805139
:10106000CBF80010DBF80000012700F08050009062
:10107000674E3068C00510D4306840F4807030602E
:10108000FFF7B2FD009005E0FFF7AEFD0099401AB2
:10109000022850D83068C005F6D55A4EA0686C3684
:1010A00001280FD00528306810D020F001003060F2
:1010B000306820F004003060A068B8B1FFF794FDFC
:1010C00000900FE0306840F00100F4E740F00400C9
:1010D0003060F7E7FFF788FD0099411A41F2883048
:1010E000814266D830688007F4D50EE0FFF77CFDBA
:1010F000009007E0FFF778FD0099411A41F288302F
:10110000814256D830688007F4D42FB1DBF8001044
:1011100021F08051CBF80010A069C8B33949091DEE
:101120000968C1F3810102294AD00228504607D03C
:10113000C8F8600000E03CE0FFF756FD04463BE0E5
:101140004746C8F86000FFF74FFD064605E000BFC0
:10115000FFF74AFD801B02282BD828688001F7D4AE
:10116000D4E907010843A16A2A4A490802EB014170
:10117000626A41EA8211084394F82C1040EA016146
:10118000C9F8001001203866FFF72EFD044606E07E
:1011900036E000BFFFF728FD001B022809D82868A9
:1011A0008001F7D52CE000BFFFF71EFD001B0228D1
:1011B00002D90320BDE8F88F28688001F4D41FE02D
:1011C0000128F7D0D9F80000E26900F480019142CB
:1011D00014D1226A00F03F0191420FD147F6C0714D
:1011E000626A0140914209D1A26A00F44031914201
:1011F00004D1E16A00F07060884201D00120D9E793
:101200000020D7E70438024000004742800E4742E2
:10121000007000400000FFFF10B5401EB0F1807F5D
:1012200001D3012010BD4FF0E02460610F21601751
:1012300000F052FC0020A06107202061002010BDBA
:101240007047704770B590F83C20012A32D00124D5
:1012500080F83C40022280F83D2003685A689D686F
:1012600022F070060A6832435A60134B02689A42B1
:1012700014D0B2F1804F11D0104B9A420ED0104BC7
:101280009A420BD00F4B9A4208D00F4B9A4205D08E
:101290000E4B9A4202D00E4B9A4204D1496825F077
:1012A00080031943916080F83D40002180F83C1094
:1012B000084670BD022070BD0000014000040040DF
:1012C00000080040000C00400004014000400140C4
:1012D0000018004010B5040003D094F83D0010B190
:1012E00007E0012010BD002084F83C00204600F0FB
:1012F0000DF8022084F83D00211D206800F052FB0B
:10130000012084F83D00002010BD000008B50068F1
:10131000B0F1804F12D10A48016841F0010101602B
:101320000068002200F00100009011461C20FFF729
:10133000C9FCBDE808401C20FFF7B6BC08BD000092
:10134000403802400168CA6842F00102CA60006881
:10135000816801F00701062903D0016841F001010D
:1013600001600020704770B5044690F83C000128E9
:1013700017D0012584F83C50022084F83D002068F5
:10138000826822F0770222F47F4282600868502847
:1013900030D00DDC20284DD005DC98B310283BD18F
:1013A00048E0022070BD302844D0402834D139E0D4
:1013B000602828D0702806D0B0F5805F2CD0B0F51A
:1013C000005F29D10AE0CB68D1E90121206800F053
:1013D0004DFB2068816841F0770109E0CB68D1E9D5
:1013E0000121206800F042FB2068816841F48041BF
:1013F000816011E0CA684968206800F049FB50210B
:10140000206807E016E0CA684968206800F051FBD0
:101410006021206800F034FB84F83D50002084F8FF
:101420003C0070BDCA684968206800F031FB40216B
:101430002068EFE7226801461046EBE7704770B579
:101440000446006801694FF00005C943890715D4B7
:10145000C168C943890711D4E91E016101202077C1
:10146000206880698007204602D0FFF7E7FF04E08C
:1014700000F098F8204600F096F82577206801697A
:10148000C943490717D4C168C943490713D46FF04A
:1014900004010161022020772068806910F4407FF8
:1014A000204602D0FFF7CAFF04E000F07BF8204698
:1014B00000F079F8257720680169C943090716D437
:1014C000C168C943090712D46FF008010161042003
:1014D00020772068C0698007204602D0FFF7AEFF62
:1014E00004E000F05FF8204600F05DF82577206802
:1014F0000169C943C90617D4C168C943C90613D4D1
:101500006FF010010161082020772068C06910F495
:10151000407F204602D0FFF791FF04E000F042F840
:10152000204600F040F8257720680169C943C907C3
:1015300008D1C168C943C90704D1891E0161204689
:1015400000F032F820680169C943090609D4C1686E
:10155000C943090605D46FF0800101612046FFF7F9
:101560006FFE20680169C943490609D4C168C943AF
:10157000490605D46FF040010161204600F015F8DE
:1015800020680169C94389060BD4C168C94389062B
:1015900007D46FF0200101612046BDE87040FFF7DD
:1015A00050BE70BD7047704770477047FEE700003F
:1015B000104810B50E4901600321416000214FF42D
:1015C000A0228160C0E903124FF4E002426101767B
:1015D000417681760122C27601774177FFF717F9CC
:1015E000002803D0BDE81040FEF79FBE10BD0000EC
:1015F000006400408800002030B587B014216846A0
:10160000FEF716FE15480024016841F080010160D4
:10161000016801F080010591016841F00401016059
:10162000016801F004010591016841F001010160C8
:1016300000680B4D00F001000590012203212846AF
:10164000FFF7CDFA032000900120CDE9010469469F
:1016500028460394FFF7E0F907B030BD3038024068
:101660000008024010B586B0002417480094019489
:101670000294039404944FF080410594016041F674
:101680001F41C0E9011442F20F71C0E90314802127
:101690008161FFF71FFE08B1FEF747FE4FF480504F
:1016A000009069460848FFF75EFE08B1FEF73DFE70
:1016B000049404A904480594FFF7C4FD002801D050
:1016C000FEF733FE06B010BDB0000020FEE7FEE7D7
:1016D000C0ED051A80ED0B3A80ED062AC0ED082A10
:1016E00080EC030A9FED060A80ED030A80ED040AF0
:1016F00080ED070A80ED090A80ED0A0A70470000B4
:1017000000000000B0F90220D0ED0E0A00EE102A11
:10171000B8EEC00A70EEC00AC0ED050A90ED070AE7
:10172000F4EEC00AF1EE10FA01DD80ED050AD0ED0D
:10173000050AB1EE400AF4EEC00AF1EE10FA01D249
:1017400080ED050AD0ED050A9FED3F0AF5EEC00ACF
:10175000F1EE10FA08DD90ED081AF4EEC10AF1EE90
:1017600010FA01D280ED050AD0ED050AF5EEC00AA7
:10177000F1EE10FA08D290ED081AF4EEC10AF1EE7B
:1017800010FA01DD80ED050AD0ED090A90ED050A99
:1017900030EE801A80ED091AD0ED0A0AB4EEE01A94
:1017A000F1EE10FA01DDC0ED090A90ED091AF1EE33
:1017B000600AB4EEE01AF1EE10FA01D2C0ED090AA7
:1017C000D0ED060A70EE600AC0ED0B0A80ED060A45
:1017D00090ED021AD0ED091A21EE000A90ED031ADD
:1017E00001EE210A90ED041A01EE200A80ED0C0AA8
:1017F000D0ED0D0AB4EEE00AF1EE10FA01DDC0ED15
:101800000C0A90ED0C1AB1EE600AB4EEC01AF1EEBB
:1018100010FA02D3B0EE410A01E080ED0C0ABDEEF1
:10182000C00A10F83C3F10EE102A121201F81320E3
:1018300010ED030A0078BDEEC00A01EB400010EE87
:10184000102A427070470000000000007047704787
:101850000B484FF6FF730B49027803EA02224378E4
:101860001A430A808278C37843EA02224A800279C6
:10187000437943EA0222CA808079087170470000E8
:10188000080000202000002000B587B04FF400724F
:101890000092002308220492039302938DF81430DF
:1018A0000A4606AB6946FEF754FD002801D0FEF754
:1018B0003CFD07B000BDFFF79DB9000030B593B007
:1018C00030216846FEF7B4FC14210CA8FEF7B0FCEA
:1018D0001D480025016841F080510160006800F05A
:1018E000805011901948016841F4804101600068FE
:1018F000022400F480401190012000900004019027
:101900008001CDE9064008AA0420A82182E813003E
:101910000B906846FFF7D2FA08B172B6FEE70CA941
:101920000F2081E831004FF4A0500F904FF4805009
:10193000109005210CA8FFF7F7F9002801D072B626
:10194000FEE713B030BD0000403802400070004098
:101950000548016841F47001016003494FF00060DF
:10196000803908607047000088ED00E010B5012163
:101970000748FFF72DF907490748FFF7C3FE054958
:101980000648FFF781FFBDE810400548FFF757BD47
:1019900000080240000000202000002088000020F5
:1019A000B0000020F0B50268254C264D264E274F8A
:1019B000274B4FF0804CA04209D0604507D0A84289
:1019C00005D0B04203D0B84201D0984204D122F0F1
:1019D000700E4A6842EA0E02A0421BD0604519D040
:1019E000A84217D0B04215D0B84213D0984211D0B7
:1019F000184DA8420ED0184DA8420BD0174DA84242
:101A000008D0174DA84205D0164DA84202D0164D59
:101A1000A84203D122F44075CA682A434D6922F0D6
:101A200080022A4302608A68C2620A688262A04217
:101A300001D0984201D10969016301214161F0BDE2
:101A4000000001400004004000080040000C00407D
:101A500000040140004001400044014000480140B2
:101A600000180040001C00400020004010B58468B1
:101A700042EA032224F47F440A432243826010BDD9
:101A8000826822F070020A4342F0070181607047C9
:101A900010B5036A046A24F001040462846924F026
:101AA000F00444EA021423F00A020A438461026249
:101AB00010BD10B5036A23F0100303628369046A42
:101AC00023F4704343EA023224F0A00343EA0111F5
:101AD0008261016210BDFEE70907090E002804DBE0
:101AE00000F1E02080F80014704700F00F0000F1D2
:101AF000E02080F8141D704702E008C8121F08C1DA
:101B0000002AFAD170477047002001E001C1121F7E
:101B1000002AFBD170470000FFF774F8FFF7CEFEF4
:101B2000FFF76AFDFFF744FDFFF79CFD0D48FFF747
:101B300009FCFEF7DBFBDFED0D0A9FED0B3A9FED95
:101B40000C2AF0EE602ADFED0B1AB0EE601AB7EE49
:101B5000000A0948FFF7BCFD002202210748FFF7F1
:101B60003EF8FEE7B000002000803B45000000008A
:101B70000000C84200007A4528000020000802400A
:101B8000000000000000000001020304060708092D
:101B9000B01B00080000002020000000F81A000818
:101BA000D01B000820000020F0040000081B0008E3
:101BB0000000000000000000000000000000000025
:101BC0000100000010000000000000000024F400EC
:040000050800018965
:00000001FF
